:02000004003EBC
:208000006F121AC400106F0C1AC400016F091AC400026F061AC400086F031AC4000402018D
:20801000560100C5C4C592C6522B6208522BECF05220ECF45223ECEF0006522DECE6523098
:20802000ECE10006B2BDAABDA2BD8BA582A48AC1FE0A865492C4522AED108AC2DC81A8C2D3
:2080300092C4562A03CB6305FF5C96CB1AC300018AC1DC01A8C16F1B5CADDC8A83A4F609DA
:208040002B8583C16F070201560100C192C5968483C192C552306403523A64F6934AEC08EF
:208050005CADDC8A767EA77196CB8AC192C4522EED2B8AC1DC01A8C192C4522AEC1D5CAD86
:20806000DC8A83A4F6092B8583C16F070201560100C192C5968483C192C552306403523A6E
:2080700064F6924AEC065CADDC8A767EA7716F029A0096D36F098AC2DC81A8C292C496D38F
:208080000201560100C1FE8A82BE86BE8BBE000688DC92A6527056C100A156331EA7CCC476
:208090000760522056C100845240EC571BA90100EC331BA90200EC1692A6526F620D526FB2
:2080A00056C10086525856C100835264EC1C5269EC1AFFEF00905275EC7A527856C0008B4A
:2080B0006F7692A6526F620A526FEC715258EC6F5264EC095269EC076F7D5275EC68527819
:2080C000ED796F658AC53B01DC81A8C585C4568F568F1EA76F6F92A6526F620A526FEC0C3D
:2080D0005258EC0A5264EC145269EC126F635275EC035278ED5F06C540A9EE0D02038AC5E0
:2080E0000901564100A4A8C5C5D4A3C46F5306C540A9EFF502046FF492A6526F620A526FE5
:2080F000EC0C5258EC0A5264EC155269EC136F425275EC035278ED3E06C540A9EF03020261
:208100006F0202018AC50901B600564100A4A8C56FDD06C540A9EF0302026F0202018AC57B
:208110000901564100A4A8C506C46FB292A6526F620A526FEC0C5258EC0A5264ECA45269F3
:20812000ECA26F185275EC035278ED148AC52BAADC81A8C527C46F0D06C540A9EF030202AA
:208130006F0202018AC50901564100A4A8C5A3C4B60006A700061EA692A4FE04A9A5520846
:20814000EC045210EC056F0706A656926F3206A656936F2F76C0FFFF06A6C3442B422B413E
:2081500000FEA9745200620827A50EAB2BAAF60F1FA427A96F12020019011E442B422B416E
:2081600006A600FEA9745200620A3B0185A48AA90200F61F561700A402006F0B3B0185A4D9
:20817000568F568FA9441E42A0AB06A6767E99BBFE840006B2BDAABDA2BD8BA9565E5BA5F4
:20818000FE0C9255A94AA8489645A34AB2A9565EED098A4883C4A0A98A4819011EC456BFF9
:2081900030C58A48565EB2A986C4A34A565EEC35A34A5CA3767E813B3B011EA6A9A5A94416
:2081A00085A3C242A34C568FA94C568FA94C00FEAA809245A9A7A34A565D00A7A9A0525867
:2081B000ED09563328AB0010A9A93AAB565700A9A9A0C5488AA286C7C5483AA9565EDA81F2
:2081C000AAC776FEB054560100A792C796C4A04A06A6A34A565EEDCD8AA2767EAB04FE8CBB
:2081D00082BE86BE8BBE9CFF0006B2BDAABDA2BD8BA482A5FE0492D18350864E640418C149
:2081E000FFEF6F0356BF01D192D95258EC09526FEC095270EC05527856B00AA0ED04D0107A
:2081F0006F02D008767E80881EA792D1ED07565E06A7565EED0343C1EF4188D992A6526486
:20820000EC035269ED0A565E06A7565E630656BF01C388D956581EA77E4106A75DA08AA2FD
:20821000767E817A6F0783C28AA5DC81A8C256BF30C59C0154D165F892D95278EC035258B7
:20822000ED1043C1EF0E8AC2A8A919011EC292D996C48AC2A8A919011EC256BF30C492D9D9
:20823000526FED0C43C1EF0A8AC292CC5230EC06A8A919011EC256BF30C4FE8482BE86BEFF
:208240008BBE0006B2BDAABDA2BDD200FE16964FA854066082548B621E52C4D5DB0106C5FA
:208250008F7EB0781E46A256C24456BF30C45CADDC86767EA7CE520056B401A292A27AC12C
:20826000EC0788AD5CADDE86DC86767EAB20D1006F1956BF30C46F7288AD5CAD8F7EB07C8E
:20827000DE86DC86767EA068D9816F1588AD5CAD8F7EB07CDE86DC86767E9FDD92A19C01D1
:2082800059A95CAD8F7EB080DC86767EA7CE520062EE0A4F5CAD8F7EB078DC86767EA7CEC7
:208290005200EC095CAD8F7EB084DC86767EA7CE520064D35CADDC86767EA9438AA3767E7D
:2082A000A7A23B0185A98A52560100A393A995A197C4934F55A965299FA9974F924F652A5C
:2082B0009CFF5AA95CADDC86767EA94388ADDE8E767EA9BA5DAD88AD5CADDD8EDE8ADC8650
:2082C000767EAAC98F7EB07C5CAD88ADDC8ADE86767EA0685CADDC86767EA9019B3095A9E8
:2082D0009783000AFFE16F068254854F560100A3DB01928B5235640F8AA3928C9C010AC4C8
:2082E000523A638806540FA4ED062B8B8A520AC48A546F032BC38A56FE9682BE86BE8BBE28
:2082F0000006B2BDAABD5AA8A2BD59A9520082A4FE0265043B0185A16F04FF5C3B0185A9B4
:20830000568F56BF6441D50A568F767E817A92A1520A630E1BA1FFF665078AC3A8A9190136
:208310001EC356BF30C492A16303BE2D6F02BE2B8AC30201564100C37EC48AC3A8A9FE827B
:2083200019011EC37AC482BE86BE8BBE0006B2BDAABDD200A2BD8BA5520082A4FE021E4222
:20833000650B767EAB04544264073B0186A38542560100A2DA819241EC078AC1A8A919011D
:208340001EC156BF2EC4924296416F088AC1A8A919011EC156BF30C40B418AA3767EAB045B
:20835000544164F592416511A2A90FA26614C4C106C18AA619011EC11EA692C2DA8196C41E
:20836000A2A90FA269F66F078AC1A8A919011EC156BF30C4FE8282BE86BE8BBE0006B2BDCC
:20837000AABDA2BD5AAD8BA506C4C4D4DA8AFE7082C21E4AC24892D1EC075200630856BFDE
:2083800006D19A066F0456BF01D19A015CAD5DADDC86A8425CADDD8ADC85A8445CADDCEE82
:20839000767E8242D00A9A0093461BA8FFFDA892640F93D1554663136F049DFF9C0197465E
:2083A0009346530263FB6F049D019CFF9746530065FC93D98AA39DFE767E82F1D00A8A9263
:2083B000767EAB049CFF2BAB80A95446642193A73B019F4688A85200640AD00A8A9285A9E2
:2083C000560100A492C45230EC036F069A3093ABED0343C1EF0883C328AB00018AA5DC81CD
:2083D000A8C396C592A79CFF80A9000EFFE692C1D00A9B00900883A38A92CAAB56B001A811
:2083E0009246767E8327FEF082BE86BE8BBE0006B2BDAABDA2BDD200FE16964FA8540660E4
:2083F00082548B621E52C4D5DB0106C58F7EB0781E46A256C24456BF30C45CADDC86767EFB
:20840000A7CE520056B401A292A27AC1EC0788AD5CADDE86DC86767EAB20D1006F1956BF55
:2084100030C46F6888AD5CAD8F7EB07CDE86DC86767EA068D9816F1588AD5CAD8F7EB07CF3
:20842000DE86DC86767E9FDD92A19C0159A95CAD8F7EB080DC86767EA7CE520062EE0A4F28
:208430005CAD8F7EB078DC86767EA7CE5200EC095CAD8F7EB084DC86767EA7CE520064D33E
:208440005CADDC86767EA9438AA3767EA7A23B018A5285A9560100A394A196C4924F94A182
:20845000964F65249CFF5AA95CADDC86767EA94388ADDE8E767EA9BA5DAD88AD5CADDD8E0A
:20846000DE8ADC86767EAAC98F7EB07C5CAD88ADDC8ADE86767EA0685CADDC86767EA90185
:208470009B3095A99783000AFFE1928B5235640A8AA3928C9C010AC4523A639206540FA489
:20848000EC042BC38A566F0B06540FA368048A562BC46F022BC38A520AC48A54FE9682BEA2
:2084900086BE8BBE0006B2BDAABDA2BD86A582A4FE02974195A99DFF59A8767EAB0480A934
:2084A0000B41641AA3C288413B0193A1640492A754A16203D5306F0792A18AA385A95601F9
:2084B00000A45DC406C2A9A4D98119011EC2FF5A7DC4000EFFECFE8282BE86BE8BBE000698
:2084C000B2BDAABD8BA5A2BD5AAD08AD020C06C4C4D4DA8AD00C5CAD5DAD82C21E4AC24802
:2084D00092D156B406D1C4C3DC8656B406A9DD8AC292A8425CADDC85A8445CAD08A4FDF801
:2084E000767E83E8D00AA892D00A924683A393D18A92767E8493D00CC592BE0106C30FA735
:2084F000ED0443C156BC00A6D00A924693A683A38A92767E832708ADFDF482BE86BE8BBE81
:208500000006B2BDAABDA2BD5AADFE72D00ADA8A8BA506C21E92C4D406C45CAD1E4AC248E6
:208510005BD1D00D8F7EB088DC8A92A356B406A356B406D12B92767EA7CE520063425CADA8
:208520008F7EB08CDC8A767EA7CE520065125CAD8F7EB078DC8A767EA7CE5200EC515CADB5
:208530008F7EB084DC8A767EA7CE5200640C6F2028ABFFFF28AAFFFF28A9FFFF28A8FFEF9C
:20854000A94A1E48D00D88AD5CAD92928F7EB07CD00DDE8ADC8A9CFF9692767EA0688F7ED3
:20855000B0845CADDC8A767EA7CE520064EC5CAD8F7EB07CDC8A767EA7CE5200630C6F20FC
:2085600028ABFFFF28AAFFFF28A9FFFF28A87FEFA94A1E48D00D88AD5CAD92928F7EB07C7C
:20857000D00DDE8ADC8A9C019692767E9FDD8F7EB07C5CADDC8A767EA7CE520063EC5CAD50
:208580005DADDC86A84292A35CADDD8ADC85A8445CADDCEE767E83E8924682A45202ED0E14
:20859000D00D9292D00D0B469C019692767EAB048AA31901560100A42BC4D00D9292D00A28
:2085A00093D98A92767E82F1D00A93D18AA392468392767E8493D00D8AA328920001767EB0
:2085B000AB045446ED0543C1EE03D00D2B92D00D9392D00A92468AA38392767E8327FEF25D
:2085C00082BE86BE8BBE0006B2BDAABDA2BD8BA482A5FE0647C183528650EE1206C540A9D2
:2085D000EF0302026F0202018AC588AD0901DE86564100A4A8C506C4767EA99E6F1106C537
:2085E00040A9EF0302026F0202018AC50901564100A4A8C58AC4C4D406C41E46C2445CAD04
:2085F0008F7EB078DC86767EA7CE5200630988AD5CAD56BF01C3DE86DC86767EAB2092D9A6
:208600005265620A5265EC1A5245EC185246EC0F5247EC066F195266EC0A5267ED155CADC7
:20861000AA4283A1DC86767E836F6F0E5CADAA4283A1DC86767E84C06F075CADAA4283A133
:20862000DC86767E8501FE8682BE86BE8BBE0006B2BDAABDA2BD8BA5D5208D8001FDFE0E96
:20863000A84E8258562100C9064E2B462B458A4E07AC1E4C064E560100A2FF2001FEAA4893
:20864000767EAB3A8A482BC4064E2B4A2B498F0001FC560100A4A84892D95267621252657D
:20865000632D525862095258EC1F5225EC159CBB520269246F3B5263EC2B5264EC156F362E
:208660005269EC1293A99D915301690E5275EC0C5278EC0A6F2B8A4E8F7EB076767EAB2920
:208670009A01FFEF00A05CAD5DADDC88A842DD86A2448AA1767E81D56F195CAD5DADDC88A3
:20868000A842DD85A2448AA1767E85C46F0F83C39B00DD81A0C392C5520056B101A89749E7
:2086900096C4DC81A84818C1FFFD9245EC055201ED2A56BF01469B0041C1EF0B92D95275F7
:2086A000EC08526FEC065278EC04525856B001A89246974AED07924AEC0B8A4856BF2BC4AA
:2086B0006F048A4856BF2DC40201564100489246CA4AED0942C1EF078A48020156BF20C4D4
:2086C0005641004840C1EE0DAAA93B01034886A985C90FA26406064C03A2090186A96F02AC
:2086D000864E83489A008AA228A801FEDD01767EAAA7A8489249EC068A4802012BC456015B
:2086E0000048C448064C0FA6680B064C8A48D52003480901DC81767EAB3A8A4C2BC444C13E
:2086F000EF16C44EAAA98A4ED53003A6767EAB3A9246CA4AED0342C1EF11064E0FA2EC0EC3
:208700008A4E92C296C456BF30C26F08C44EAAA98A4ED52003A6767EAB3A8A4E767EAB0426
:208710009449FE8E82BE86BE8BBE0006B2BDAABDA2BDFE08A046835282548B56A84806C5A5
:2087200040A9EF0302026F0202018AC50901564100A4A8C506C41E44EC498A485AD492A250
:20873000640C8A44767EAB043B011EA692A285A90FA667037A426F058A44767EAB0496424E
:208740008A48934292CC567200A8964172C354A8650E8A4840C4EE0B9EA865099CFF5AA908
:208750009A208A46C5A13E67000AFFFC9242650C82449CFF5AA9DB81DB018A46C5A192C303
:208760003E67000AFFFB9342924154A865138A4840C4EF109EA8650E9CFF5AA99A208A467E
:20877000C5A13E67000AFFFC6F059A008A46C5A13E67FE8882BE86BE8BBE0006B2BDAABDC1
:20878000A2BD5AAD08AD0214D010DA8EA04806C21E92D01282D206E21E92D0148BA406C158
:208790001E928AC1767EAB04D014C492D0141EA706A607A71E92D0142B4906920FA6FFE9B1
:2087A00000CA2B4E2B4B2B4D284CFFFF8AC16F0B0201D012C5A3560100C192C48A923E67D5
:2087B0000A498AC192C4522556C000B202015CAD560100C1DC8E83A1767E80005CAD83A123
:2087C000DC88A8425CADDC8E767E80228AC192C4524CEC1D5268EC0F526CED1F8AC1DC0153
:2087D000A8C192C4526CEC041A4E00406F161A4E01006F0F8AC1DC01A8C192C45268EC0477
:2087E0001A4E00206F0A1A4E02006F031A4E008006C109018AA91EC10201560100C192C460
:2087F000964B526EEC255273EC155CAD5DADDC88A842DD8E5CAD08A4FDF4767E8628D012FB
:208800008392D0105CAD08A4FDF4C5923E6772496F575CADDC88A842D0125CADDC89A844AD
:208810005CADA246DC8E8392767E87166F49CC4E07605220EC385240EC271BA90100EC0C16
:208820001BA90200EC05064840A9EF326F2F064840A9EF2E6F2B064840A9EF0302026F02FF
:208830000201D00E09013B01A392D00E564100488549568FA992D00E8A48568FA9928AC403
:20884000A9C41ED46F1D064840A9EF0302026F0202010901564100488A483B0185498AC479
:208850001EC46F0E064840A9EF0302026F0202010901564100488A488AC4924996C4D014E6
:20886000C4C106920FA6FFE6FF3E6F04520056C0FF41924908ADFDEC82BE86BE8BBE00069D
:20887000FE047D447C43974296415841761F023B8F008E5692099394767E932B761F01BF0F
:208880001A0A02001A0C0200FE840006B2BDFE0AA8449A009B001E482B498A4406F41E4664
:2088900028A93C0028A8461C1E420646767EAA555200650728A93C0028A8461C1E466F100A
:2088A00028A9C00028A8C4791E420646767EAA555200630628A9C00028A8C4791E469A0024
:2088B0009B001E420646767EAA55520064759A0028A8447A1E420646767EAA5552006405C1
:2088C000761F023B2B006F269A0028A842C81E420646767EAA555200761F023B56B30100C5
:2088D00063199A0028A841201E420646767EAA555200761F023B56B30200630C9A009B00CF
:2088E0001E420646767EAA555200761F023B56B203008A442BEC8A442BE48A442BDC8A4445
:2088F0002BD49200767EA9F01E429A0028A84120767EA16EC446C242767EA4961E4806482C
:20890000767EA89896492B4A924A5204631A92499B0A00FEA8CE3B0176C08E568A4485A9DA
:20891000560100A7854A560100A492C796D49B0A924900FEA8BD96490A4A924A520464E828
:20892000761F023B06445621000007AC09028AA91AC400806F6C3B01FF2F85901E4206464F
:20893000767EAA5552006205761F023B2B006F193B01FF2F82401E420646767EAA555200D9
:20894000761F023B56B50100650C9A009B001E420646767EAA555200761F023B56B40200C4
:208950008A4456BF40EC8A442BE48A442BDC8A442BD49200767EA9F01E429A0028A841202F
:20896000767EA16E8BA90646767EAB411E42B2A9767EA4961E480648767EA89896492B4A6F
:20897000924A5203631A92499B0A00FEA8CE3B0176C08E568A4485A9560100A7854A5601CF
:2089800000A492C796D49B0A924900FEA8BD96490A4A924A520364E8761F023B064456214A
:20899000000007AC09028AA91AC400808A44D00B92945210EC468A44D00892945210EC0BF0
:2089A0008A44D0083B0185948F008E56560100A492C46F038A4492DC8A4496D48A44D0096B
:2089B00092945210EC0B8A44D0093B0185948F008E56560100A492C46F038A4492E48A44E4
:2089C00096DC8A44D00A92945210EC0B8A44D00A3B0185948F008E56560100A492C46F03CB
:2089D0008A4492EC8A4496E48A44D00B3B0185948A4476C08E56560100A792C796EC6F4D78
:2089E0008A44D00892945210EC0B8A44D0083B0185948F008E56560100A492C46F038A4453
:2089F00092D48A4496D48A44D00992945210EC0B8A44D0093B0185948F008E56560100A439
:208A000092C46F038A4492DC8A4496DC8A44D00A92945210EC0B8A44D00A3B0185948F005F
:208A10008E56560100A492C46F038A4492E48A4496E48A44D00B92945210EC0B8A44D00B42
:208A20003B0185948F008E56560100A492C46F038A4492EC8A4496ECFE8A8BBE0006FE0436
:208A3000A8448A4492C45205FFE900DE8A442BC48A44761F023B06F41E420602767EAA5547
:208A40005200ED178A44D008761F023B9294540DED108A44D0099294540EED0B8A44D00AF5
:208A50009294540FED068A44D00B92945410EC2D8A44761F023B06F41E02C544DF0892C73B
:208A6000960DC544DF0992C7960EC544DF0A92C7960FC544DF0B92C796108A44767E8886B3
:208A70008A449A3793D4767E932B8A449A3693DC767E932B8A449A3593E4767E932B8A44DB
:208A80009A3493EC767E932B8A44D00E92948A44D00F549466048A44D00F2B948A44D00EEE
:208A900092948A44D00D5494EC088A44D00D92948A44D00F549468108A44D00C3B01761FC0
:208AA00001BF560301948F008EE0560100A406C4980299036F08761F023B0620761F01BF4C
:208AB000980499058A44D0109294520264058A44D0102B946F048A44DC100AC4761F0239A3
:208AC00056BFFF008A44D0109294ED0A761F01BFCC010800761F0239FFCA96006F069A242B
:208AD0008F008E40767E93598A44D0103B01761F023985948F008EC6560100A492C45400EE
:208AE000ED298A44D0102D940644310307AB09118AA90ACC8A44D0102D948A44D011350348
:208AF000560100A488948A44D0102D948A44D0123503560100A492A6549466158A44D010B4
:208B00002D948A443503D013560100A456BF01946F0A8A44D0102D948A443503D0125601DF
:208B100000A42B94FE840006FE08A8462B472B479247520367238A4628AC0003D0133047C9
:208B2000560100A492945201ED158A463047D012560100A49294ED0E8F3EAFF4A8420E47CB
:208B30008F008ED2FF30560100A406C41E44767EA7450A479247520368DF8A46D013929461
:208B40005201ED158A46D0129294ED118A46D0132B949A009B00761F023B1E048F3EB006CC
:208B5000A8428A4606F41E44767EA7458A46D01692945201ED208A46D0159294ED1C8A461F
:208B6000D0162B943B01761F023B560301008F008ED8560100A406C41E420604767EA278B6
:208B7000761F023B1E048F3EB01A0604A8421E44767EA7458A46D01992945201ED208A4615
:208B8000D0189294ED1C8A46D0192B943B01761F023B560301008F008ED8560100A406C424
:208B90001E420604767EA273761F023B1E048F3EB01A0604A8421E44767EA745FE88000605
:208BA000B2BDAABD59A952005AA8A2BD82A46403520A640428A9FFFF6F1E761F0238C52ABF
:208BB0003E673B018F008D82560302A1560100A406C4EC0A83A9D01092D493A28AA3C59541
:208BC0003E6759A96F038D7FFFFF761F0238C5283E6792A182BE86BE8BBE0006B2BDAABD35
:208BD00086A492C2EC0A8D408DD86F02D9188F008E08A8A90FA1ED03D4006F088AA183A2CC
:208BE000767EAAFA5200EDF38AA186BE8BBE0006B2BDAABDA2BD9A3A82A4FE0A8AC3767E75
:208BF000AAE486A4A8A9EC2083C392A25CAD3B019EA5DC8959A9520856B208A192A185A97B
:208C0000767EA9803B015CAD92A1DC8985A9560100A42BC45CADDC89767E8BCEA8A9EC0446
:208C1000DA01AAC36F038F008DC0FE8A82BE86BE8BBE0006B2BD761F0238C52AFE02A8423C
:208C20003E675CADDC82767E8BE8D014C5948A423E67761F023859A9C5283E6792A1FE82FD
:208C30008BBE0006B2BD761F0238C52AFE04A042A8443E675CADDC84767E8BE88BA45CAD2B
:208C4000DC82767E8BE8A8A90FA1EC08761F0238C5283E6728A9FFFF6F0CD0168A44834236
:208C5000C5913E67761F023859A9C5283E6792A1FE848BBE0006B2BD761F0238C52A8BA446
:208C60003E678AA1767E8BCEA8A9EC082BC4761F0238C5283E679A006F07761F0238C52876
:208C70003E6728A9FFFF8BBE0006B2BDAABD59A952005AA8A2BD82A46403520A640428A974
:208C8000FFFF6F1E761F0238C52A3E673B018F008D82560302A1560100A406C4EC0A83A929
:208C9000D00E92D493A28AA3C5953E6759A96F038D7FFFFF761F0238C5283E6792A182BECD
:208CA00086BE8BBE0006761F02369200ED1C8F008D8E6F06DC04020083A4DD841EC58F407E
:208CB0008DAAA0A90FA4EDF78F008DD88F408E086F032BC4DC18A0A90FA4EDFC761F02362D
:208CC00056BF01000006B2BDAABDA2BD761F0238C52AFE049643A8423E67767E8CA38DC0AB
:208CD0008D828BA3D90C8F008DAA6F02D904A8A90FA1ED08761F0238C5283E6728A9FFFF28
:208CE0006F3406C1EDF45CADB2A93B01DC8203A3FF4159A9767E8BE8D00986A44092EE1EFB
:208CF000D00A8A42924393A1C5923E675200964364173B01560302A1D009560100A3AAC39B
:208D0000924396D34192EE04DA091AC20001761F0238C5283E6792A16F082843FFFF761F87
:208D10000238C5283E679243FE8482BE86BE8BBE0006B2BDAABD59A45AA5A2BD82A992A1BE
:208D20006403520A6404020019016F1E761F0238C52A3E673B018F008D82560302A15601CF
:208D300000A406C4EC0983A9D0125CD4A2A9C5955DA23E676F0302001901761F02388BA9A8
:208D4000C5283E67B2A982BE86BE8BBE0006B2BD520059A9AABD6414520A6312761F023811
:208D5000C52A3E678D808D823B01560302A1560100A206C2ED08761F0238C5283E6728A933
:208D6000FFFF6F158AA9D00C92D2C5943E6759A91BA1FFFFEC078AC20200DC0918C4FFFE45
:208D70001EC2761F0238C5283E6792A186BE8BBE0006B2BDAABD761F0238A2BDC52A8BA4BA
:208D80005BA9FE0E0662A04E1E4206601E44065E1E46065C1E48065A1E4A06581E4C3E6780
:208D9000767E8CA38AA1767E8BCEA8A9EC07761F0238C5283E679A016F368D808DD88F0042
:208DA0008E086F02DA18A8A90FA2ED08761F0238C5283E6728A9FFFF6F2692C2EDF48AA29D
:208DB00083A10208767EA980D0082B92761F0238D0097B92D00A064EC5281E92D00C064C15
:208DC0001E92D00E064A1E92D01006481E92D01206461E92D01406441E92D01606421E928D
:208DD0003E679A00FE8E82BE86BE8BBE00067622761F01C01A1C000876FD7C80FF693E673D
:208DE000761A7622761F01C41A0000401A0000201A0000801A0040001800FFF7761AFF6963
:208DF000FF202EDD7640801B00067622761F01BECC36FFCF50209636CC36FCFF1AA9020028
:208E00009636CC36CFFF1AA920009636CC37FFCF50209637CC37FCFF1AA902009637CC3766
:208E1000CFFF1AA920009637761AFF690006FE027622761F01C41800FFF71A0000029A0D03
:208E2000FF69767E8E3E761F01C5CC01FE0050509601767E8EB39641761F01C59A50CD018E
:208E3000FE009E4118A901FFCAA89601761F01C41800FFFD761AFE82FF690006FE029641B8
:208E4000761F01C4900FCD20FC3FFF85CAA896209241CD21FC3F900FFF85CAA8962192412A
:208E5000900FCD22FC3FFF85CAA896229241900FFF85CD23FC3FCAA896239241900FFF8549
:208E6000CD24FC3FCAA896249241900FFF85CD25FC3FCAA896259241900FFF85CD26FC3F26
:208E7000CAA896269241900FFF85CD27FC3FCAA896279241900FFF85CD28FC3FCAA896280A
:208E80009241900FFF85CD29FC3FCAA896299241900FFF85CD2AFC3FCAA8962A9241900FAE
:208E9000FF85CD2BFC3FCAA8962B9241900FFF85CD2CFC3FCAA8962C9241900FFF85CD2D8A
:208EA000FC3FCAA8962D9241900FFF85CD2EFC3FCAA8962E9241900FFF85CD2FFC3FCAA841
:208EB000962FFE820006FE062B412842010002001E46284303E756BF0644761F01C4CD201B
:208EC000FFC09244903FCAA896209244CD21FFC0903FCAA896219244903FCD22FFC0CAA8C6
:208ED00096229244903FCD23FFC0CAA896239244903FCD24FFC0CAA896249244903FCD2533
:208EE000FFC0CAA896259244903FCD26FFC0CAA896269244903FCD27FFC0CAA896279244A4
:208EF000903FCD28FFC0CAA896289244903FCD29FFC0CAA896299244903FCD2AFFC0CAA857
:208F0000962A9244903FCD2BFFC0CAA8962B9244903FCD2CFFC0CAA8962C9244903FCD2DD2
:208F1000FFC0CAA8962D9244903FCD2EFFC0CAA8962E9244903FCD2FFFC0CAA8962F1A08FF
:208F200000201A0820001808FFBF1808BFFF1A000004CC08FFE050069608CC08E0FF1AA9D8
:208F30000E009608CC14FFFC50029614CC14FFF350089614CC14FFCF50209614CC14FF3FE4
:208F400050809614CC14FCFF1AA902009614CC14F3FF1AA908009614CC14CFFF1AA9200075
:208F50009614CC143FFF1AA980009614CC15FFFC50019615CC15FFF350049615CC15FFCFF3
:208F600050109615CC15FF3F50409615CC15FCFF1AA901009615CC15F3FF1AA904009615FC
:208F7000CC15CFFF1AA910009615CC153FFF1AA940009615FF202EDD7640801B761F01C412
:208F800056BFFF1A924254416946761F01C44004EFFD1A050001761F002C0E0007461E4661
:208F90000E0107461E460E0207461E460E0307461E460E0407461E460E0507461E460E06E3
:208FA00007461E460E0707461E46761F01C44104EFFD1A050002761F002C0E0807461E4606
:208FB0000E0907461E460E0A07461E460E0B07461E460E0C07461E460E0D07461E460E0E93
:208FC00007461E460E0F07461E46084100109242544166BC761F01C41808FFDF1808DFFFD8
:208FD0008842A3460200F61F561700A63F439243FE860006B2BDAABD761F0238A2BDC52AD0
:208FE00059A85AA9FE02A8423E671BA1010069038D4001008DC08E2092A27AC3FFC793A181
:208FF0008AA396CB92A1FFC779D396DB9AF38342767EA1F1D5008AA3767EA240761F02389E
:209000000E21FF370D20761F0238FF3FC5280EA859A93E67FE8282BE86BE92A18BBE0006E1
:20901000B2BDAABD761F0238C52A86A43E678AA2767EAB048D408E209C0193A98AA183A26A
:209020009AF5767EA1F1D5008AA1767EA240761F02380EC9C528FF370DC1FF3F0EA859A9B8
:209030003E6786BE92A18BBE0006B2BD761F0238C52A3E678D408E209AF89B00D5008AA13B
:20904000767EA1F1D5008AA1767EA24088D928AC0018761F023880D106A6563B0D20761F48
:2090500002381EA606A7FF3F07A61EA70EC9FF3707A7C5288BA93E67B2A98BBE0006B2BD0B
:20906000761F0238A2BDC52A8BA482A5FE643E675CAD83A1DCE4767EAB298AA1767EAB04F3
:209070009C013B015CAD59A983A3DCE485A1560100A4767EAB298AA3767EAB048DC08E2062
:2090800094A15DAD9C018AA3DDE459A99AF793A1767EA1F1D5008AA3767EA240761F023812
:209090000ECBC528FF370DC3FF3F0EA859A93E67FEE482BE92A18BBE0006B2BDAABD761F4A
:2090A0000238A2BDC52A59A85AA9FE02A8423E671BA1010069038D4001008DC08E2092A26F
:2090B0007AC3FFC79B00D5008AA396CB92A1FFC779D396DB9AF2767EA1F183428AA3767EF1
:2090C000A240761F02380E21FF370D20761F0238FF3FC5280EA859A93E67FE8282BE86BEF2
:2090D00092A18BBE0006B2BDAABD761F0238A2BDC52A59A886A4FE0296413E678DC08E2069
:2090E00092A179C3FFC78AA296CB924196D3FFC796DB767EAB049C0193A98AA383A29AF0E3
:2090F000767EA1F1D5008AA3767EA240761F02380E21FF370D20761F0238FF3FC5280EA8F1
:209100005AA93E6792A2640292A1FE8282BE86BE8BBE0006B2BDAABD761F0238A2BDC52A94
:2091100059A586A9FE027C413E678DC08E209241290128AC001896C3FFC7D5008AA396CB4A
:20912000AAA97AD3FF4796DBAAA997E3AAA956229B0096EB92A1FFC779F396FB9AF4767EAC
:20913000A1F1D5008AA3767EA240761F0238882328AC0018802206A6563B0D201EA606A7D2
:20914000FF3F07A61EA70E21761F0238FF3707A7C5288BA93E67FE8282BE86BEB2A98BBE0F
:209150000006B2BDAABD761F0238A2BDC52A8BA582A43E678AA3767EAB048D808E209C01E3
:2091600093A98AA283A39AF6767EA1F18AA283A1767EA240761F0238C5283E678AA1767EA5
:20917000AB04FF58ED02D10082BE86BE8AA18BBE0006B2BDAABD761F0238C52A59A93E67E0
:209180008D808E2092A19B00D50079C2FFC78AA296CA9AF1767EA1F1D5008AA2767EA240FC
:20919000761F02380E21FF370D20761F0238FF3FC5280EA859A93E6786BE92A18BBE000641
:2091A000B2BD761F0238C52A3E678D408E209AF99B00D5008AA1767EA1F1D5008AA1767EBA
:2091B000A24088D928AC0018761F023880D106A6563B0D20761F02381EA606A7FF3F07A6BB
:2091C0001EA70EC9FF3707A7C5288BA93E67B2A98BBE00067622761F01BE181CFFFE181C4E
:2091D000FFFD1A1200031A12000CCC16FFFC50019616CC16FFF350049616761AFF69000670
:2091E000FE02761F01E456BF050C8F0186A0920C28A803939C0188A9A84228A98700FF5AAC
:2091F0000200F61F561700A6A9A900FEA7F828AC001F3B011EA6562207A6FF409CFB9603BF
:2092000028A80393920C9C01A84288A928A98700FF5A0200F61F561700A6A9A900FEA7F8C8
:209210003B011EA6562207A6FF409CFB960456BF2009282060002821204076228F3EAB0EFC
:20922000761F0036A830761A762300802910FE82FF690006FE04A842761F01E4CC09080078
:20923000FFCA5201ED0428A955556F23CC021000FFCB5201ED0428A910006F1BC542DF0CBB
:2092400092C796072B436F09884306420DA609131EA792C796080A438A42D00E92945443E0
:2092500066F4C542DF0E92C7960528092E209A00FE840006FE02A842C542761F01E4DF0CC5
:2092600092C79607C542DF0E92C7960528092C209A00FE820006FE027622761F01BF1A0A62
:209270000001761F01BE1816FFFC1A1A0001761F01BF1A0C0001761F01BE1816FFF31A1A07
:209280000002761A761F01BF1A0A00012B429242520A67050A429242520A68FD761F01BF83
:209290001A0A00022B429242520A67050A429242520A68FD761F01BF1A0C00012B429242F1
:2092A000520A67050A429242520A68FD761F01BF1A0C00022B429242520A67050A4292425F
:2092B000520A68FD761F01BF1A0A00012B429242520A67050A429242520A68FD2B4192413A
:2092C0005209671D761F01BF1A0A00022B429242520A67050A429242520A68FD761F01BFF5
:2092D0001A0C00022B429242520A67050A429242520A68FD0A419241520968E5761F01BF51
:2092E0001A0A00022B429242520A67050A429242520A68FD761F01BF1A0C00012B429242A1
:2092F000520A67050A429242520A68FD761F01BF1A0C00022B429242520A67050A4292420F
:20930000520A68FD761F01BF1A0A00022B429242520A67050A429242520A68FD761F01BFD2
:209310001A0A00012B429242520A67050A429242520A68FD761F01BF1A0C00022B42924270
:20932000520A67050A429242520A68FDFF69767E91CAFE820006FE0297429641761F023AC6
:2093300056BF010E9241960C924296138F008E80767E922A761F023A2B1756BF010B6F1205
:20934000761F023A92175203690D767E926B761F023A2B0B761F01E41A0908002802FFFF03
:209350006F05761F01E44502EFEC1A020020FE820006FE04A8449641761F023A56BF010E71
:209360009241960C8F008E80767E925A761F023A2B1756BF030B6F12761F023A9217520375
:20937000690D767E926B761F023A2B0B761F01E41A0908002802FFFF6F05761F01E445026D
:20938000EFEC1A020020761F023A2B1756BF040B6F048A44920696C4761F01E4CC211F00C6
:20939000FFC7EDF8FE840006B2BDA8A98BA4EC40761F0238C52A3E67761F0235C43AD982E7
:2093A000B2A983A10FA66603D4006F058AA6C4D40FA666FDC5C507A70902FF5A06A60FABE6
:2093B000EC03C2D56F0906D61ED506C6FF5407C509021EC5C5C5A8A9EC1003C409021EA68A
:2093C000A0A90FA6EC03A0D46F0B06D51ED406A7FF5407C419026F07761F0235A03A06A736
:2093D0008AA5FF541EC4761F0238C5283E678BBE0006761F0238C52A3E67761F02358F00AB
:2093E0000400A8A9A83C8F00040040A4EF041901DC011E3C403CA83AEF0402015641003C52
:2093F00002028F7FFFFF033C1EC4A0D4A83E2B38761F0238C5283E670006B2BDFF58AABDDB
:2094000086A9ED03D1006F4C40A9EF03090186A9761F0238C52A3E67761F02359238EC03A5
:20941000767E93D9761F0235BE008B3A6F04C4A18AA18BD48F3FFFFFA8A90FA1ED03D1009D
:209420006F2BA3C1A9A9FF541EA7AAA90FA762F009040FA7680D06A6ED0606D1761F0235EF
:209430001E3A6F0406D18AA61ED4C3C16F14B2A907A2090283A9AAA907AB09021EC5AAC1B8
:2094400006A6ED05761F0235A03A6F038AA6A0D406D11ED5D902761F0238C5283E6786BE68
:209450008AA18BBE0006B2BDAABDA2BD86A45200FE029641ED06767E9394D400FFEF00A288
:20946000AAA9ED073B018541767E93FDFFEF009A924140A9EF039C019641761F02388BA279
:20947000AAA9C52AD98207C182A93E673B018541C5C11EA68541FF5A06A70FAB6311761FCC
:209480000235063E073C0FA369698AC3A8A96266FF58630606A703A409020FAB685F761FEF
:2094900002358A3AB2A90FA46906C5A48AD40FA466FD6F02B600A3C1AAA907AB0FA4EC1C1C
:2094A000A9A903A6FF5A02040FAB66423B0183A28541560100A593AB9A029EA885A91EC59C
:2094B000A8D5C2C106A7ED05761F0235A03A6F308AA7A0D46F2D83C40202565D00A5565D21
:2094C00000A60FAB631683D43B018AA28541560100A492ABFF5C85A91EC406A7A0D4C2C1E7
:2094D000ED05761F0235A83A6F1383A7A8D56F1006A7ED0606D4761F02351E3A6F0406D449
:2094E0008AA71ED4A0A9FF5407C109021EC1761F0238C5283E678AA26F14761F0238C5282F
:2094F0003E673B018541767E93FD82A4A8A9EC0806C183A2767EA9228AA2767E93948AA3A7
:20950000FE8282BE86BE8BBE0006B2BD761F0238C52A3E67D100761F02359238833AED0E07
:209510008F3FFFFF3B016F07C4C585A10FA6650259A683D5A8A90FA5EDF8761F0238C528F5
:209520003E6792A18BBEFF5C0006B2BD761F0238C52A3E67D100761F02359238833AED0BBB
:209530008F3FFFFF6F0592A19EC583D559A9A8A90FA5EDFA761F0238C5283E6792A18BBE22
:209540000006D4000006B2BD1EAC0646564400A98BA9767E93FDC4A4A8A9EC0C0200D9819E
:2095500019010FA1EC070200D9812B8419010FA1EDFB8BBE8AA60006761B294256167625FF
:209560006F00761B2942561676256F00761B2942561676256F00761B2942561676256F0026
:20957000761B2942561676256F00761B2942561676256F00761B2942561676256F00761BF4
:209580002942561676256F00761B2942561676256F00761B2942561676256F00761B29420A
:20959000561676256F00761B2942561676256F00761B2942561676256F00761B29425616F9
:2095A00076256F00761B2942561676256F00761B2942561676256F00761B294256167625BA
:2095B0006F00761B2942561676256F00761B2942561676256F00761B2942561676256F00D6
:2095C000761B2942561676256F00761B2942561676256F00761B2942561676256F00761BA4
:2095D0002942561676256F00761B2942561676256F00761B2942561676256F00761B2942BA
:2095E000561676256F00761B2942561676256F00761B2942561676256F00761B29425616A9
:2095F00076256F00761B2942561676256F00761B2942561676256F00761B2942561676256A
:209600006F00761B2942561676256F00761B2942561676256F00761B2942561676256F0085
:20961000761B2942561676256F00761B2942561676256F00761B2942561676256F00761B53
:209620002942561676256F00761B2942561676256F00761B2942561676256F00761B294269
:20963000561676256F00761B2942561676256F00761B2942561676256F00761B2942561658
:2096400076256F00761B2942561676256F00761B2942561676256F00761B29425616762519
:209650006F00761B2942561676256F00761B2942561676256F00761B2942561676256F0035
:20966000761B2942561676256F00761B2942561676256F00761B2942561676256F00761B03
:209670002942561676256F00761B2942561676256F00761B2942561676256F00761B294219
:20968000561676256F00761B2942561676256F00761B2942561676256F00761B2942561608
:2096900076256F00761B2942561676256F00761B2942561676256F00761B294256167625C9
:2096A0006F00761B2942561676256F00761B2942561676256F00761B2942561676256F00E5
:2096B000761B2942561676256F00761B2942561676256F00761B2942561676256F00761BB3
:2096C0002942561676256F00761B2942561676256F00761B2942561676177602761B2942CE
:2096D000561676256F00761B2942561676256F00767E96FC7622761F01C01A1C0008FF6978
:2096E00076FD7C803E67761F01C0181CFFF7761AFF69767E97C19A0C9B02767E9704767ECC
:2096F000975400067622761F01C056BF552556BFAA25761AFF6900067622761F01C056BF07
:209700006829761AFF690006FE0297429641761F01C04311EF0676221A110010761A76256D
:20971000CC110180FFC6EC0576221811FE7F761A9221900F5441EC1676221A110040924198
:20972000CD21FFF0900FCAA89621761AFF69767E96FC921190015201EDFD76221811FFBF16
:20973000761A92425201EC035202ED0976229003CD11FE7FFF86CAA89611761A924252034C
:20974000ED117622CC11FE7F1AA901009611FF69FF2002567640801B761F01C01A1101807C
:20975000761AFE82FF6900067622761F01C056BF021BCC10FFFC500296101A1C00081A2014
:2097600000011A2000021A2000041A1D01001A1C40001A1D40001A1D00011A1D00021A1DA1
:2097700000041A1D00081A1D00101A1D00201A1D00401A1C00011A1C00101A1C00021A2092
:2097800040001A1C04001A1C01001A1C02001A1901001A1902001A1C0004761AFF6900063F
:20979000FE027622761F002B2820FFFF2821FFFF2822FFFF2823FFFF2824FFFF2825FFFFAE
:2097A0002826FFFF2827FFFF761A761FFDFF9238964192399641923A9641923B9641923C97
:2097B0009641923D9641923E9641923F9641761F002B402FEE039A016F029A00FE82FF691F
:2097C00000067622761F01C01812FEFF1812FFFE1A1220001A1240001A120400761AFF6967
:2097D00000067622761F01C01812FBFF1A1200021A1220001A1240001A1200011812FFFB2A
:2097E0001812FEFF761AFF6900067622761F01C01812BFFF1A1220001812FFFD1A120001CF
:2097F0001812FFFB1A1204001812FEFF761AFF6900067622761F01C01A1000401A1240001C
:209800001812DFFF1812FFFD1A1200011812FFFB1A1204001812FEFF761AFF690006FE0670
:209810002B46761F0238CC080004FFC15201ED381808FFFB6F325200EC039CFF6F029A1333
:2098200096468F3EAE80921D581DA84296438F008E099294964492469645767EA7456F0B37
:20983000761F01BF1A0E00046F10761F01BF1A0E08006F0B761F0238581D8F008E09929489
:209840005201ECEF5202ECF2761F02389B140A1D921D00FEAAF4961D921E541DEDCDCC0856
:209850000008FFC25201ED0C1808FFF78F3EAE9AA842767EA745761F02382B1D2B1ECC08BA
:209860000002FFC05201ED081808FFFD8F3EAEDEA842767EA745761F01C1CC1B8000FFCE15
:209870005201ED0C1A1B4000181BDFFF1A1B20008F3EAF22A842767EA745FE860006767ECB
:20988000A9DA761F01C11811FFDF56BF07102B1256BF0E131A1100201A1A8000CC1BFFE083
:209890005001961B1A1100021A1100011A1A40001A1B002076228F3EA545761F0037A800D1
:2098A000761A761F00331A32000176230100761F01C12B1C1A1A20001A1B2000FF690006B4
:2098B000FE04964102001E446F08020107441E44FF2012480F446807761F01C1CC1A1F009D
:2098C000FFC7EDF4FF2012480F44680392419619FE840006FE0E8F3E9903A8429A028F7E98
:2098D00098FA8F3E9908A8448F3E9911A8468F3E992BA8488F3E9934A84A8F3E993BA84C85
:2098E0008F3EAF66767E8D79964D5200ED128F008C4C8F7EAF72A8428F3EAF6C767E9AE281
:2098F0008F008C4CD500020056BF0441767EA361FE8E0006FE0497449643A84206421E42EE
:209900009A00FE840006FE0296419A00FE820006FE069745A844964106441E449A00FE86C1
:209910000006FE069745A84496412B4692A89CFF53009645EC0E8A443B0185460A465601A4
:2099200000A492C4767E98B093450B455300EDF49245FE860006FE067D451E447C41064405
:209930001E440200FE860006FE02A84206421E429A00FE820006FE04A044A84206421E42FF
:2099400006441E449A00FE840006D500A0BDA0BDA0BDA0BDA0BDA0BD804FF3A72902565EEE
:20995000565E630256588AA9A9A5A3520650630256581E4AA94C0FA46003A9A90FA5610F68
:209960006613064A6113A0ABA8A9767E9A160642A3444FA76C025658FE8C000628AB0001C5
:209970002BAA02006FF756336FF80200A8ABF61F5617004CA9A4A0ABF61F5617004CA8A9D0
:209980006FE9D500A0BDA0BDA0BDA0BDA0BDA0BD80A82902565E565E630256588AA9A9A51D
:20999000A3520650630256581E4AA94C0FA46003A9A90FA56112660E064A6112A0ABA8A99A
:2099A000767E9A160646A3484FA76C025658FE8C0006A8A9A0AB6FF95633FE8C000602000B
:2099B000A8ABF61F5617004CA0ABF61F5617004CFF5A02006FEAD500A0BDA0BDA0BDA0BD60
:2099C000A0BDA0BD8AA9A9A50F506003A9A90F52610F68130650611306501E4A06521E4CA2
:2099D000A8A9767E9A160642A344FE8C000628AB00012BAA02006FFA56336FF80200A8AB6A
:2099E000F61F56170052A9A4A0ABF61F56170052A8A96FECD500A0BDA0BDA0BDA0BDA0BDD5
:2099F000A0BD8AA9A9A50F506003A9A90F526111680E0650611006501E4A06521E4CA8A984
:209A0000767E9A160646A348FE8C0006A8A96FFD56336FFB0200A8ABF61F56170052A0ABB7
:209A1000F61F56170052FF5A02006FEFD03F565E565E640E5635565221A55635565222A8CA
:209A200093A09FAC9FA597A02AA856A0D88156A08AA9A9A5064AFF531E4AFF5A0648FF5392
:209A30001E480F4C6003A9A90F4E680A0648565D004E5654004C1E48A94A3B086F03064830
:209A400029080646FF531E460644FF531E44A8A9A0AB0008FFDE0006B2BDA0A98BA583469D
:209A5000EC6F76BE9AC4761F0238C22C92CD88C5EC105262B601EC0593D5536256B000A77E
:209A6000522B28AA0001EC0792D5522BEC046F02B6002BAA9A0093AAED0F93A65372ED0312
:209A70009B106F085377EC035361ED039B206F029B0027A86F022BAB93A6536156B180A561
:209A800056B000A593ABCBA527A893A7EC048F4001006F02D50093ABCBA5D00A27A893AACA
:209A900056B040A556B100A593ABCBA5979193A7EC0328A9800093A65361EC135372EC042E
:209AA0005377EC066F1693AAEC1450026F1293AAEC039B026F029B01CAA81AA906006F09CC
:209AB00093AAEC039B026F029B01CAA81AA9020828A801B6767E8CC396C152006303D400D4
:209AC0006F028AA18BBE0006B2BDAABD8D808C408AA2767EA5E9761F02309200520264101D
:209AD000DA0CD10192C264048AA2767EA5E992A1761F0230DA0C9C0159A9540064F486BEE5
:209AE0008BBE0006B2BDAABDA2BD761F0238C52A8BA5FE02864C82A43E678AA2767EA5E9A9
:209AF0008AA3B24283A2767E9A4C761F0238C5288BA43E67FE8282BE86BE8AA18BBE000628
:209B0000761F02389237ED0B56BF01378F008C64BE0628C4FFFFDC0C000EFFFD8F008C40EE
:209B10002BAC6F0492AC9C012DA992AC761F023054006308350C83A4560100A51BC5FFFF34
:209B2000EDF292AC520AED03D4000006310CA8A907AB8AA992AC5400ED020A0083A4F60BBC
:209B30002B850006B2BD761F0238AABDC52A8BA586A4FE023E67767E9B0083A4B2428AA2F6
:209B4000767E9A4C761F0238C5288BA43E67FE8286BE8AA18BBE00060006767E9B5C767E78
:209B50009B6E767E9B80767E9B94767E9BA8767E9BBA767E9BCC00067622761F01BE1A0CC7
:209B600000011A0C0002CC06FFFC50019606CC06FFF350049606761AFF6900067622761F23
:209B700001BE1A0C00041A0C0008CC06FFCF50109606CC06FF3F50409606761AFF690006E8
:209B80007622761F01BE1A0C00101A0C0020CC06FCFF1AA901009606CC06F3FF1AA90400A5
:209B90009606761AFF6900067622761F01BE1A0C00401A0C0080CC06CFFF1AA91000960614
:209BA000CC063FFF1AA940009606761AFF6900067622761F01BE1A0C01001A0C0200CC07EA
:209BB000FFFC50019607CC07FFF350049607761AFF6900067622761F01BE1A0C04001A0CBC
:209BC0000800CC07FFCF50109607CC07FF3F50409607761AFF6900067622761F01BE1A1C81
:209BD00001001A1C0200CC17FFFC50019617CC17FFF350049617761AFF690006761F01BE38
:209BE000181CFFFE1812FFFCCC16FFFC500296161A1C0002CC16FFF3500896160006762286
:209BF000761F01BE180CEFFF180CDFFF180CBFFF1A0303001A030C001A033000CC07FCFFA7
:209C00001AA901009607CC07F3FF1AA904009607CC07CFFF1AA910009607761AFF690006AB
:209C1000FE02767E96D83B10FF69767EA84B76260000762F0000767EA8737680001F8F0044
:209C200080008F7F500006A6767EA922767E9CB3761F01BF1A0C00041A0A0800767EA8DF72
:209C3000767E987F767E98CA8F3EAB4AA842767EA7458F3EAB5CA842767EA7458F3EAB9081
:209C4000A842767EA7458F3EABC2A842767EA7458F3EABFAA842767EA745767E926B767E15
:209C500091CA767E91E0761F023956BF11019A249301767E932B761F02399A379316767EFB
:209C6000932B761F02399A369316767E932B761F02399A359316767E932B761F02399A3493
:209C70009316767E932B9A009B00761F023C1E0656BF0A0B56BF100A56BF100956BF100899
:209C800056BF030C56BF640D280E03E8767EA6348F3EAC1AA842767EA745761F00331A20CC
:209C9000000129102920761F0238923090015201ED151830FFFEFF2003E80F32660F0200B3
:209CA0001E32761F01BF1A0E02001A0E00041A0E0800761F01C456BF0F1A8F008F00FF695B
:209CB000767E8A2F6FE17622761F01BE1817FFF31A1A02001816FFCF1A1A00041817FF3FB3
:209CC0001A1A080018063FFF1A0A00801807FFFC1A0A01001807FFF31A0A0200761AFF69DA
:209CD0000006B2BDAABD761F0238A2BDC52A86A582A4FE083E678AA2767EA3D15200EC6B42
:209CE00092F28AA39EE29642767EAB04D00A1E481E46929290075204EC4D0646EC6C2B41BA
:209CF000D00AC4483B01809285420FA6680359486F025942CCA700075202ED1485A1D50AB8
:209D00008AA31E44767EAAD7A8A9EC0CD50A06448AA3767EAAD792A4284100019EA39C01AD
:209D100059A93B018AE283A385A1767EA9223B0185A1560100E2C44885A1560100A385A191
:209D2000564100A69242C2489EA19642EC039241EC0E8AA2767EA4365200ED1A92F28AA232
:209D30009EE29642DC0A1AC400202B410648EDB96F220648EC20D1003B018AA385A15601D5
:209D400000A4934892C2767E8BA05200630BDA0A1AC20400761F0238C5283E6728A9FFFF5D
:209D50006F0FC44872A13B0185A9564100A6C2480648EDE3761F0238C5283E679246FE88C8
:209D600082BE86BE8BBE0006B2BDAABD8D808C4C83A2767E9CD159A98F3EB09083A2767EA7
:209D70009CD186BE93A18BBE94A80006761B0005ABBDAABDA2BDA8BDA0BDC2BDC3BDFE0AD6
:209D8000FF69294256167622761F003328210200761A761F01C41A050004761F002CFF69A3
:209D90009200767EAAB91EA628A9333328A840531E4206A6767EA4961EA69A0028A845803F
:209DA0001E4206A6767EA0EB761F002C82A99201767EAAB91EA628A9333328A840531E4284
:209DB00006A6767EA4961EA69A0028A845801E4206A6767EA0EB761F002C86A99202767EC3
:209DC000AAB91EA628A9333328A840531E4206A6767EA4961EA69A0028A845801E4206A689
:209DD000767EA0EB761F002C8BA99203767EAAB91EA628A9333328A840531E4206A6767EB5
:209DE000A4961EA69A0028A845801E4206A6767EA0EB8F3EAF74A842A244AA46B2481E4A99
:209DF000767EA745761F002C9202767EAAB91EA628A9333328A840531E4206A6767EA4962F
:209E00001EA69A0028A845801E4206A6767EA0EB761F023C1E06FE8AC5BEC4BE83BE8ABEB7
:209E100082BE86BE87BE000376177602B2BDAABDA2BD82A928A9721828A842B1FE021E4283
:209E2000A2A9767EAA555200650B761F023828A9FFFF28A87F7F56BF0236FFEF00829A005F
:209E30009B001E42A2A9767EAA555200631128A9AA3B28A83FB81E42A2A9767EA4961EA6F9
:209E4000FF2F7E001E4206A6767EA2736F1028A9AA3B28A83FB81E42A2A9767EA4961EA6A8
:209E5000FF2F7E001E4206A6767EA278767EA89859A9767EA9F086A9FF2F7E631E42AAA978
:209E6000767EA4961E42A2A9767EA27382A928A9808328A8B95E1E42AAA9767EA4961E42D9
:209E7000A2A9767EA2731E4286A9767EA49682A928A9530828A83B881E42A2A9767EA496FE
:209E80001EA6FF2F7D001E4206A6767EA278AA42767EA49686A928A9BF5B28A83D4C1E424C
:209E9000A2A9767EA4961EA6FF2F7E001E4206A6767EA278AA42767EA2731E42AAA9767E13
:209EA000A0EB1EA6FF2F7E001E4206A6767EA2781EA69A0194A15CA906A6767EA6C1FE826D
:209EB00082BE86BE8BBE0006B2BDAABDA2BDFE0206A6FFE100845FDCA3C406D4FF90FFD49C
:209EC000974106D456AA1AA8800056911BA70000630256588EA9A9A11B410000600456A299
:209ED00061726F7D1B4107FF61745FDDA3C506D5FF90FFD4974206D556AA1AA880005691BE
:209EE0001BA700006302565886A9A9A31B420000600456A2615B6F631B4207FF615A9341D9
:209EF0009F42630AB2AB8BA3A9A33AAB8EA2A9A25D427D41FF5D2DA83AA9B2AB1BAC003602
:209F0000630F1BAC00006108AAA9A2AB562C86A9A9A3B2AB3AA9565700A3564000A2565E86
:209F1000565E612A97A7565E565E630256585C415635565221A35635565222A893A49FAC26
:209F20009FA397A42AA88DC00200565700A3D300564000A3630418A87FFF0AA45699910F45
:209F30000AA4651D1BA407FF631418A7800099A793A4FF93CBA7A9C61ED6FE8282BE86BE84
:209F40008BBE000606D5A3C56FF706D4A3C46FF45633CDA780001AA87FF06FEE56336FEC76
:209F5000B2BDAABDA2BDFE085CADDC83767EAA6C8BA928A904F328A83F351E42B2A9767E55
:209F6000AA555200651FFF2F7E001E42B2A9767EA2731EA6FF2F7E001E4206A6767EA27317
:209F700086A9FF2F7E001E42B2A9767EA4961EA6FF2F7E001E4206A6767EA2781E42AAA9D0
:209F80006F180B43FF2F7E001E42B2A9767EA2738BA9FF2F7E001E42B2A9767EA4961EA6EF
:209F9000FF2F7E001E4206A6767EA2781E42B2A9767EA0EB8BA99243767EA9F082A9B242FC
:209FA000B2A9767EA49686A928A9808328A8B95E1E42A2A9767EA4961E48AAA9B242767EB4
:209FB000A4961E4628A93F3A28A8C0D41E42AAA9767EA2781E4228A97E3D28A8BF0D767E08
:209FC000A0EB1E420646767EA4961E42B2A9767EA2781E420648767EA2788BA9FF2F7E6354
:209FD0001E42A2A9767EA4961E42B2A9767EA278FE8882BE86BE8BBE0006B2BDAABDA2BD41
:209FE000FE0206A661795FDD93DCF3A7A3C406D4FF90FFD4974106D456AA1AA88000569910
:209FF0008EA9A9A11B41000061721B4107FF6169A3C506D5FF90FFD4974206D556AA1AA85A
:20A000008000569986A9A9A31B420000615A1B4207FF615D93419F4297A402001ED61EC653
:20A0100028A500353AA9B2AB2B410FA26003A9A90FA3680BB2A9565500A38BA93AA956548D
:20A0200000A28EA92841000106D6A3C656A01ED6A9A994411EC63AA9B2AB56A08EA9A9A1EC
:20A030006103000DFFE30AA560020AA508A500092DA506D6A3C65652640356A00BA4569096
:20A040008DC00200565700A3D300564000A3630418A87FFF0AA45699910F08A403FF651749
:20A050001BA407FF630E18A7800099A793A4FF93CBA7A9C61ED6FE8282BE86BE8BBE00064A
:20A060005633CDA780001AA87FF06FF456336FF2B2BDAABDA2BDFE0206A661715FDD93DC87
:20A07000F3A7A3C406D4FF90FFD4974106D456AA1AA880008EA9A9A11B410000616B1B419A
:20A0800007FF6162A3C506D5FF90FFD4974206D556AA1AA8800086A9A9A31B420000615AC9
:20A090001B4207FF61519341954297A45633A2AC564700A1A9A9560500A0565300ABB2ACA1
:20A0A000560500A2565300AB562800A99B00565CB2AC564700A2565300AB3AAC564700A3C4
:20A0B000565300AB560500A2565300AB1EC6562800A99B00564700A2565300AB1ED6A3C655
:20A0C000630356900AA48DC00200565700A3D300564000A3630418A87FFF0AA45699910FF9
:20A0D00008A4FC0165171BA407FF630E18A7800099A793A4FF93CBA7A9C61ED6FE8282BE38
:20A0E00086BE8BBE00065633CDA780001AA87FF06FF456336FF23ABDB2BDAABDA2BDFE02A6
:20A0F0002901FF58615A5CA8917F08A800801E4293A4FFD65CA8064E61655DA8917F08A881
:20A10000008059A858A993A5FFD65DA893A471A518A8010097A618A400FF18A500FFDC7F8E
:20A1100092A49EA596A7644B08A9FF01623C93A192A0FF3659A858A90642FF35F60E1FA19E
:20A120005BA901A3F60A1FA1562D04A22DA336A0FF40F60B1FA1FF339B00FF30FF540CA2EB
:20A1300095A3FF4008A70001F61FFF770920FF4008A70001F61FFF77FF5A92A7652008A9F2
:20A14000FF016311A9A9FF46917F5BA85AA925A695A7FF960CA295A3FE8282BE86BE8BBE0F
:20A150008EBE00069B00FF5708A8FF7FFF5A93A660F428A8800071AA92AB6FEFFF20000073
:20A160006FECFF5A93A418A80100FF965CA8A9A908A8FF7F1CA88000CBA46FDFB2BDAABD43
:20A17000A2BD8BA99A009B00FE02824C1E42B2A9767EAA555200EC469A009B001E42A2A927
:20A18000767EAA555200EC3EFF2F7F001E42A2A9767EAA555200EC369A009B001E42B2A9A1
:20A19000767EAA555200631EA2A9767EA8985AA9767EA9F01E42A2A9767EA2731EA69A00C8
:20A1A0009B001E4206A6767EAA555200ED40B2A9767EAB418BA99B0292A200FEA8CE5AA9CF
:20A1B0006F02D200B2A9767E9F50A242767EA496767E9E168BA992A2EC0DB2A9767EAB41B8
:20A1C0006F2CFF2F7F001E42A2A9767EAA555200ED03B2A96F229A009B001E42B2A9767E87
:20A1D000AA555200EC0C9A009B001E42A2A9767EAA555200ED10FF2F7F006F0F9A009B00A4
:20A1E0001E42A2A9767EAA5552006205761F023856BF01369A009B00FE8282BE86BE8BBE6B
:20A1F00000068EA4B2BD76C0900027A8BE07D40097C796CF40A4EE0A92A4FFC02FA906A761
:20A200000DAA8BA9C68096D16F0F92A4FFC02FA906A70DAA8BA9CCA400019380FF8291FF2E
:20A210002DA9FF6799D1DC01000EFFE692ABEC229CFFD40088A940A4EE0B92A49C08FFC057
:20A2200027A906A70DAB8EA9C68596D06F1092A49C08FFC027A906A70DAB8EA9CCA400010C
:20A230009385FF8291FF2DA9FF6799D0DC01000EFFE477007700770077008BBEFF690006DF
:20A240008EA4B2BD76C09000BE07D40027C792A4FFC02FA906A70DAA8BA9CCA40001FF82B9
:20A2500093C92DA9DC01FF6391FF9780000EFFF1A0A9EC1892ABEC169CFFD40088A992A476
:20A260009C08FFC027A906A70DAB8EA9CCA40001FF8293C82DA9DC01FF6391FF9785000EF3
:20A27000FFF08BBE00061B43000061031C438000B2BDAABD2901FF58616086A9917F08A8E8
:20A280000080FF358BA9AAA97618FFD691FF5CA876136304B2A9FF548BA9064861505DA8B6
:20A29000917F08A80080FF358EA993A57618FFD691FF5DA8761363043AA9FF548EA93B013A
:20A2A00085A5AEA46424622EB2A907A0614297A6FF560AA4F61FFF747CA709406303FF408C
:20A2B0000AA786A993A7653508A8FF01632AAAA9FF46917F86A9560309A618A801009A0063
:20A2C00095A7FF9607A286BE8BBE0006FF5619186216091896A63AA92DA6561007A160D81A
:20A2D0006FF31918620A091896A6B2A92DA656105CA507A060CD6FE806486FE6AAA96FE409
:20A2E00093A618A8800008A87F7F28A9FFFF6FDCFF2000006FD98F000C00761F0235A83077
:20A2F0000200761F003019011E022B062B071A0400101A0400200200761F02351E328F00D1
:20A300000C08A8208F000C10A828761F003019011E0A761F0030020019011E12761F003009
:20A310002B0E2B0F761F00302B162B17761F00301A0C0010761F00301A140010761F0030AF
:20A320001A0C0020761F00301A140020761F023502001E221E2A0006FE081E46A8448A4444
:20A3300006461EE48A44064C1EF4064C1E420646767EA496767EA8221E488A4406488AC4D3
:20A3400019011ED48A448AC42BF48A448AC42BFC8A448AC41AE400108A448AC41AE400200F
:20A350008A448AC418E4FBFF8A448AC418E4F7FF8A448AC41AE440008A4402001ED4FE882B
:20A360000006B2BDAABD761F0238A2BDC52A8BA482A9FE02A0425A4B3E671BC1FFFFEC3C5C
:20A3700092A25204EC03A2A9EC378AD1A8A9EC13D00A939143A8EF06DC81767E9394D00A0B
:20A380009391BE00D00818A8FFF7C2D1C2E1C2F1C2916F03D00A939192A2D00A56B101A2E9
:20A3900018A8FFF8CBA2979102010FA3ED0302001E42FF2001000FA367038DC00100064288
:20A3A000ED19DB01A2A9767E93FDA8A9ED0C1ED1D90A1AC10400761F0238C5283E6728A9BF
:20A3B000FFFF6F1B09018AA11ED1DC0A1AC400086F04064209011ED1D0081E911EE107A331
:20A3C0008F3E9AC4761F023819011EF1A82C761F0238C5283E679A00FE8282BE86BE8BBE3E
:20A3D0000006B2BD8BA41BC1FFFFFE02EC09D00A889144A6EF07D00A1AA604007E919A00E0
:20A3E0006F2847A6EF07D5020200767EA702D00A889145A6B600EE0846A6EF0693A6D00AEF
:20A3F000512088A8979106D1ED0D42A6EE0B92A68AA1D50090079641FF200100767EA36114
:20A4000080A9D00806F11E919A0093A756B101A9FE828BBE00061BC4FFFFFE02EC09D00A95
:20A41000889445A6EF07D00A1AA604007E949A006F1C44A6B600EE0846A6EF0693A6D00AD0
:20A42000511088A8979406D4ED0C42A6EE0A92A6D50090079641FF200100767EA36180A9F1
:20A430009A0093A756B101A9FE820006B2BD8BA480C11BA7FFFFEC1AD00A5D91BE0045A5EC
:20A44000EF0FA3D1A9A9EC0C5CAB93E19FA4EC0892A7A9A4767E8BA0D00A88A95D9192A6B8
:20A450006308D00A1AA504007D9128A9FFFF6F0C06D1D00846A51E911EE1EF05D00A18A5B9
:20A46000FFCF7D919A008BBE0006B2BDAABDA2BD761F0238C52A8BA43E67B2A9ED1B761F58
:20A470000230D2009200651A8DC08C40D1001BC3FFFFEC078AA3767EA43693A2CBA95AA858
:20A4800092A1761F0230DB0C9C0159A9540064F06F058AA1767EA4365AA9761F0238C52868
:20A490003E6782BE92A286BE8BBE00063ABDB2BDAABDA2BDFE022901FF5861455CA8917F99
:20A4A00008A800801E4293A4FFD65CA8064E613B5DA8917F08A8008059A858A993A5FFD6B8
:20A4B0005DA893A471A518A8010097A618A400FF18A500FFDCFF92A494A596A7642F08A9FA
:20A4C000FF0162272D4236A037A1FF4F07ABFF5A2D4136A007AB37A105AB09406304FF4010
:20A4D00008A70001FF5A93A7651908A8FF016311A9A9FF46917F5BA85AA925A695A7FF963E
:20A4E0000CA295A3FE8282BE86BE8BBE8EBE000693A6FF9608A87F7F6FF6FF2000006FF375
:20A4F000761B0005ABBDA8BDA0BDC2BDC3BDFE02294256160201761F0238560100321A3011
:20A500000001761F023C0A000A0F761F0238CC080004FFC15201ED020A1F2B4192415202DF
:20A5100063263B018F008E4256030141560100A48AC4D00B929456B100A6EC0C56030141E2
:20A520008F008E42560100A48AC4D01792949C0188A9560301418F008E42560100A48AC455
:20A53000D0177E940A419241520264DC7622761F003356BF0121761AFE82C5BEC4BE83BE73
:20A540008ABE87BE000376177602761B0005ABBDA8BDA0BDC2BDC3BDFF6929425616761FD3
:20A5500001C14F1BEE2D761F02381A080004921E9C01541DEC1A8F008E096F10761F023877
:20A56000581E761F01C1921796949B14761F02380A1E921E00FEAAF4961E761F01C1CC1B57
:20A570001F00FFC7EDEC6F16761F01C1181BDFFF1A1B2000761F02381A0800086F0B1A1B23
:20A580004000181BDFFF1A1B2000761F02381A080002761F01C11A1B0040761F0033282145
:20A590000100C5BEC4BE83BE8ABE87BE000376177602B2BD761F0238AABDC52A59A986A40F
:20A5A000FE023E678AA2767EA3D15200EC2ED00A929290075204EC1CC4E206F20FA6660743
:20A5B0008AA2767EA4365200ED1DC4E206A68AA6D00A09011EE279C44192EF1E92A1520A23
:20A5C000ED1B8AA2767EA4365200ED0C6F1579415CAD9B0192C2DC81767E8BA01BA9FFFFB9
:20A5D000ED0BDA0A1AC20400761F0238C5283E6728A9FFFF6F06761F0238C5283E6792A176
:20A5E000FE8286BE8BBE00068F008C4C767EA5990006B2BDAABDA2BD82A45AC3D00AFE0257
:20A5F000CC9310001BA2FFFF9641EC05767EA4365200EC0428A9FFFF6F22D00A4393EF0941
:20A600008AD3DC81767E93948AA3DC0A18C4FFF702001ED31EE31EF392C3767E8D4759A95C
:20A6100028C3FFFF9241EC0A3B018F008CC0560304A2560100A4767EAB4692A1FE8282BE8F
:20A6200086BE8BBE0006B2BD761F0238C52A8BA43E678AA1767EA5E9761F023859A9C5281B
:20A630003E6792A18BBE0006767E8DD77622761F00378F3E9D76A814761A761F00331A34E5
:20A640000004762302007622761F01C41800FFF71A0000041A0900201809FFBFCC09FFE067
:20A65000500396091820FC3FCC21FC3F1AA902009621CC22FC3F50409622CC23FC3F1AA983
:20A6600002409623182007FF182107FF182207FF182307FFCC20FFC050069620CC21FFC07E
:20A6700050069621CC22FFC050069622CC23FFC050069623761AFF69000628AD0050FF69BA
:20A68000561F5616561A2940761F00002902761B762228A9B09228A8003E0901611B76FEFC
:20A69000B09229046F0F9B0024A9DF016C04290424A8DF011EA6F7A1248606A781A109014D
:20A6A0001EA724A96303FF5C3B0459A9DF010009FFEC761A28A9FFFF28A8FFFF0901610E8C
:20A6B00076FFFFFF6F06DF01C3BD1EA73E67C5BE24A9DF0124A8FF5860F7767EAA23767E79
:20A6C000AA3EB2BD59A4FE041E4492A1EC389A009B001E420644767EAA555200EC3092A1F8
:20A6D0003B0185A91EA69243FFA690FF80A906A681A71EA6652102FE0FA6640892A6184338
:20A6E000807F560307A998436F1A761F02389A009B0056BF02361E420644767EAA555200AE
:20A6F000630628A9FFFF28A8FF7F6F0828A9FFFF28A87F7F6F039A009B001E440644FE84DB
:20A700008BBE0006B2BDAABD761F0238C52AA2BD59A586A482A93E671BC2FFFFEC2192A1E4
:20A710005201ED0DD00A4492EF0A06E2EC08D008C492564100A6A2A903A682A98AA2767EAD
:20A72000A4368AA25DA1A2A9DC0A18C4F5FF5CC2767E8D191EA6020019010FA6ED08761F3D
:20A730000238C5283E6728A9FFFF6F06761F0238C5283E679A0082BE86BE8BBE0006767E37
:20A74000A5990006767E9CD10006B2BD761F0238C52AFE08064E1E483E67761F02318F0065
:20A750008C4C1B0CFFFFED08761F0238C5283E6728A9FFFF6F14A8425DAD8F3EA73FA844B1
:20A76000DD8E8F3EA742A8465CADDC88767E877E761F023859A9C5283E6792A1FE888BBEFF
:20A77000000676BEAC7F2BAC3B016F09350ADC0194A79CD080C42DA96F16DC0180C49A01BB
:20A7800083A694A785A9560100A543C5EEF792A7522DEC05522B2BABED066F0328AB000109
:20A79000DC0180C49A013B0183A694A785A9560100A542C5EEDC92ABEC0492ACFF5C2DA9B6
:20A7A00092AC0006BE00FF58B2BD8EA93B0156B401A6FE165DADDD832BC5020A1E423AA9F0
:20A7B00000FEA80785A9FF569C30968D020A1E423AA900FEA7F88EA9EDF192A6EC0356BF2D
:20A7C0002D8D59ADD9960EA103A58BA90914767EA92292A1FE968BBE9C13000606D428A775
:20A7D00000010FD556B202A756B400A7600806C40FC556B602A756B800A7611906D4FF90CF
:20A7E0001BA8FFE0680C06D5FF901BA8FFE0680706D4FFDE92DDFFCE9EA800060BA73B019B
:20A7F00085DC92A7CFDD6302FF5C00069A00000629022904565FFF5A0642565F1E420200D8
:20A80000F61F5617004206AB56322902762029022904565FFF5A0642FF561E420200F61F00
:20A8100056170042563229027620FF5A0200F61F56170042A9A97620FF5A0200F61F56174C
:20A82000004276202902FF58611B5CA8917F08A80080FF362FA893A4FFD65CA891FF08A8A2
:20A83000FF81640F08A8FFE2620F6106FF5D2DA893AA56226F0293AA48A46C02FF54000665
:20A84000FF200000000628A87FFF28A9FFFF48A46CF7090100063B10761F00331820FFFE0F
:20A850002B222B242B262B282B2A2B2C2B2E2B302B322B342B362B382B232B252B272B2984
:20A860002B2B2B2D2B2F2B312B332B352B372B39FF690006761F00331A2000012821FFFF38
:20A870002910FF690006FE068F3EAD80A8448F000D00A846020656010044560100467622D5
:20A880002B419241527D630D8A44C484A8448A46A8A909021E46C2C40A419241527D64F5DC
:20A89000761A761F00331A200001FE86FF690006FF58611A5CA8917F08A80080FF365DA8D3
:20A8A00093A4FFD65CA891FF08A8FF81640E08A8FFF2620DFF5D2DA885A52901FF5148A485
:20A8B0006C032902FF5400069A00000628A97FFF48A46CFA9C01FF5C00065CA871A997A6FB
:20A8C0003B0185A9FF565DA985A4FF565CA992A5F60F1FA44FA66C02FF5C762096A65CA89D
:20A8D0003B0185A9FF565DA985A4FF565CA992A5F60F1FA44FA66C02FF5D92A87620FE0292
:20A8E000767EA2EB9A0028A8447A8F008D701E429A0028A84270767EA32C761F00302804F3
:20A8F00040017622761F00358F3EA4F0A80C761A76230001761F00331A220040FE82FF693A
:20A9000000065EDCA3C406D4FF90FFD497A506D456AA1AA8800008A5FC0164139A0F9EA5EF
:20A9100065092DA9FF6392A81BA600006302FF5C000628A97FFF93A663FC28A980006FF920
:20A920009A006FF7FF5A8EA4C5A492ABEC079CFF88A992859687000EFFFE92AB88A9A9A928
:20A930000FA6EC1093AAEC0EA9A99DFF5CA876BFFFFE92859687000EFFFE92859687000C7C
:20A94000FFF88AA000065EDCA3C406D4FF90FFD497A506D456AA1AA8800008A5FC0164117C
:20A950002FA89B1F9FA565092DA893AA56221BA600006302FF540006560200A6FF576FFCDC
:20A9600002006FFA28ACFFFF0F426009A9A90F4456B100AC56B601AC92AC762056B100AC48
:20A9700056B201AC92AC762028ACFFFF0F426003A9A90F4456B100AC56B601AC92AC7620D3
:20A98000FF58FF5AEC1BC5A4C4A4DD81DF81DD01DF01DE0192C596C7EC05A9A91901FF5A6A
:20A99000EDF7A9A9A9A71901FF5A02010FA76706A9A92B861901FF5AEDFC0006FF5A06A61E
:20A9A0006111A9A997A53100569691FF611253FF610A08A8038056A318A58000CBA5A9C672
:20A9B0001ED600065633CDA580001AA87FF06FF856336FF6FF5A06A66117A9A9611697A50A
:20A9C0008F00041D63066B012902FF546A020AA4F61FFF743100569D93A456A318A5800041
:20A9D000CBA5A9C61ED6000656336FFC0006767EA9DA00067622761F01BE180DEFFF180DF3
:20A9E000DFFF1A050300CC09FCFF1AA901009609CC09F3FF1AA904009609761AFF690006F9
:20A9F0003B0185A96113FF3F5DA86B01FF566B0FD48DF61FFF7418A83FFFFF4F56040EA4AA
:20AA0000FF384FA56C031AA88000000628A8C7009A00000600067622761F01BE180DEFFF18
:20AA1000180DDFFF1A0503001A050C00CC09FCFF1AA902009609CC09F3FF1AA90800960971
:20AA2000761AFF69000628ABFFFF28AAFFFF28A9FFFF28A8FFFF0FABED04BE00D4006F0925
:20AA30008AA928A9FFFF28A8FFFF88C409028AA992A6767E9C10000677006F00B2BD761FE4
:20AA4000023859A9C52A3E67761F0238C52E06A7EC0392A13E67761F0238062CEC031EA73B
:20AA50003E67767EAA3C8BBE00060F446107620428A4FFFF6F04D4016F02D400D5024FA8D2
:20AA60006C020BA54F436C020BA53B0185A41BA500006202FF540006FE021E429242ED0302
:20AA70009241EC0B9241FFA690FF9C8296C41841807F1A413F006F022BC40642FE8200065D
:20AA8000761D1EBD874456050048A9A4564700488742A9A95665004807AB8746566500440C
:20AA900007ABA8ABFE84762076220200761F01BE1E061E081E161E361E0A1E1A2B3A1E02E4
:20AAA0001E041E121E0C1E1C761AFF6900065300650F9DFFC5A4DD8188A8DF81DD01DF016A
:20AAB000DC0193C554A897C7EC04000EFFF9D4000006FF3E18A87FFFFF58610BD48EF61F72
:20AAC000FF7418A83FFF2901FF4E56040FA4FF370006FE0406D51E4206C51E441C418000FE
:20AAD0005DADDD845DA5767E9EB4FE840006FF5888A51EA7EC0892A654C4EC06DF81DC016F
:20AAE00006A7EDFAD400000693C46F075300ED03D4000006DC0193C454A8EDF9000697A6A5
:20AAF0009B00F60F1FA6762097A69B00F60F1FA692A8762093C492A89EC55300EC0552004F
:20AB0000DD01DC01ECF800060200DC8119011EA6DC01DE0192C4EDFD06A60006761B2942A9
:20AB10005616761F003356BF802176177602761F0238A8280006761F0238A82A00060006E4
:20AB200006D4A3C4565E61031CA880001ED6A9C60006C4A4DD81DE81DD01DE0192C596C67A
:20AB3000EDFC0006561F7622B9C028290068761A007EA67DFF58C4A4EC047D861901EDFEEF
:12AB40000006FF5861031CA880000006767E8C1A000658
:20AB4A00000D000A000D000A004400530050002000690073002000720065006100640079A5
:20AB5A0000210000000D000A00D400AD00B400B400BE00AB00C600B700C000FD00B300CC98
:20AB6A00002D002D002D002D002D002D002D002D00C600AC00C900CF0041004400B500C45B
:20AB7A0000BB00F900B100BE00CA00B900D300C300B700BD00B700A8002D002D002D002DF8
:20AB8A00002D002D002D000D000A0000000D000A000D000A00BF00AA00B700A200B000E588
:20AB9A0000D300B200BC00FE00C500E400D600C300A300BA00D700A200D200E200A300BA33
:20ABAA0000CB00F900D300D000CC00F800CF00DF00C300B100B600BC00CE00AA00D700F38A
:20ABBA0000D300D200C100AC00BD00D300210000000D000A004A00310030003100CE00AA4D
:20ABCA0000B000E500D400D800550053004200D700AA00B400AE00BF00DA00A300AC00B4C1
:20ABDA0000AE00BF00DA00CD00A800D000C500CA00B500D100E900D000E800D200AA00B6E7
:20ABEA0000CC00BD00D300B800C300CE00BB00D600C300CC00F800CF00DF00C300B100006C
:20ABFA00000D000A004A003100BA00CD004A003200CC00F800CF00DF00C300B100CA00B93D
:20AC0A0000C400DC00C800FD00C900AB00350030003500300020004C004500440000000092
:20AC1A00000D000A00BF00AA00B700A200B000E500B500C400500031003000C500C500D523
:20AC2A0000EB00A300A8003600D500EB00A300AC00CE00BB00D300DA00B000E500D700D31A
:20AC3A0000D700F300C900CF00BD00C700A300A900B500C40052004700A300AC00CE00AAEF
:20AC4A0000BF00C900B500F700B500E700D700E800B500C400CA00E400B300F600A300AC3C
:20AC5A0000BF00C900BD00AB0052004700D600B100BD00D300BD00D300C800EB00B500BD85
:20AC6A0000C400A300C400E200CA00E400C800EB00BF00DA0041003100BD00F800D000D0FC
:20AC7A0000CA00D400D100E90000000000200020002000200020002000200020002000281A
:20AC8A0000280028002800280020002000200020002000200020002000200020002000208A
:20AC9A000020002000200020002000200088001000100010001000100010001000100010C2
:20ACAA00001000100010001000100010004400440044004400440044004400440044004482
:20ACBA00001000100010001000100010001000410041004100410041004100010001000181
:20ACCA0000010001000100010001000100010001000100010001000100010001000100015A
:20ACDA00000100100010001000100010001000420042004200420042004200020002000267
:20ACEA0000020002000200020002000200020002000200020002000200020002000200022A
:20ACFA000002001000100010001000200000000000000000000000000000000000000000D8
:20AD0A00000000000000000000000000000000000000000000000000000000000000000029
:20AD1A00000000000000000000000000000000000000000000000000000000000000000019
:20AD2A00000000000000000000000000000000000000000000000000000000000000000009
:20AD3A000000000000000000000000000000000000000000000000000000000000000000F9
:20AD4A000000000000000000000000000000000000000000000000000000000000000000E9
:20AD5A000000000000000000000000000000000000000000000000000000000000000000D9
:20AD6A000000000000000000000000000000000000000000000000000000000000000000C9
:20AD7A0000000000000000000000000096CE003E96CE003E96CE003E96CE003E96CE003E8F
:20AD8A0096CE003E96CE003E96CE003E96CE003E96CE003E96CE003E96CE003E96CE003E99
:20AD9A00955C003E9561003E9566003E956B003E9570003E9575003E957A003E957F003E95
:20ADAA009584003E9589003E958E003E9593003E9598003E959D003E95A2003E95A7003E45
:20ADBA0095AC003E95B1003E95B6003E95BB003E95C0003E96D3003E95C5003E95CA003EF0
:20ADCA0095CF003E95D4003E95D9003E95DE003E95E3003E95E8003E95ED003E95F2003ECD
:20ADDA0095F7003E95FC003E96D3003E9601003E9606003E960B003E9610003E9615003EBE
:20ADEA00961A003E961F003E96D3003E9624003E96D3003E96D3003E96D3003E96D3003E2D
:20ADFA0096D3003E9629003E962E003E9633003E96D3003E96D3003E96D3003E96D3003EF0
:20AE0A0096D3003E96D3003E96D3003E9638003E963D003E9642003E9647003E96D3003E3E
:20AE1A0096D3003E96D3003E96D3003E96D3003E96D3003E96D3003E96D3003E96D3003EE0
:20AE2A0096D3003E96D3003E96D3003E964C003E9651003E96D3003E96D3003E96D3003ED9
:20AE3A0096D3003E96D3003E96D3003E9656003E965B003E9660003E9665003E966A003EFF
:20AE4A00966F003E96D3003E96D3003E96D3003E96D3003E9674003E9679003E967E003E22
:20AE5A009683003E9688003E968D003E9692003E9697003E969C003E96A1003E96A6003E94
:20AE6A0096AB003E96B0003E96B5003E96BA003E96D3003E96D3003E96D3003E96D3003E12
:20AE7A0096D3003E96BF003E96C4003E000D000A007200780044006100740061005B0025EB
:20AE8A000064005D0020003D0020002500630020003B002000770072003A002500640000BB
:20AE9A00000D000A002D002D002D002D002D002D002D002D002D002D002D002D002D002D0B
:20AEAA00002D004600490046004F0020006F0076006500720066006C006F0077002D002D49
:20AEBA00002D002D002D002D002D002D002D002D002D002D002D002D002D002D002D002DA8
:20AECA00002D002D002D002D002D002D002D002D002D002D002D002D002D002D002D002D98
:20AEDA00002D002D002D0000000D000A002D002D002D002D002D002D002D002D002D002DF8
:20AEEA00002D002D002D002D002D0053004300490020004800570020004F0076006500720D
:20AEFA000066006C006F0077002000490053005200200043006C006500610072002D002D11
:20AF0A00002D002D002D002D002D002D002D002D002D002D002D002D002D002D002D002D57
:20AF1A00002D002D002D002D002D002D002D0000000D000A002D002D002D002D002D002DB7
:20AF2A00002D002D002D002D002D002D002D002D002D004D0061006E006E0075006C0020E7
:20AF3A00004800570020004F0076006500720066006C006F0077002000200043006C006590
:20AF4A0000610072002D002D002D002D002D002D002D002D002D002D002D002D002D002D9E
:20AF5A00002D002D002D002D002D002D002D002D002D002D00000000007500610072007459
:20AF6A00000000000075006100720074003A000000770000000D000A0054004900D700EEE1
:20AF7A0000D000C200B000E600CE00DE00420055004700B500C40041004400D000BE00C6B3
:20AF8A0000AC00CA00D400D100E900C000FD00B300CC002D002D003E0041004400200052D8
:20AF9A00006500730075006C007400200069007300200053004F00430030002D004100319A
:20AFAA00003A00250030002E003200660056002000200053004F00430031002D00420031E6
:20AFBA00003A00250030002E003200660056002000200053004F00430032002D00410031D6
:20AFCA00003A00250030002E003200660056002000200053004F00430033002D00420031C4
:20AFDA00003A00250030002E00320066005600000053003100300030000000000053003144
:20AFEA000030003100000000005300310030003200000000000D000A007300630061006E44
:20AFFA000020006B00650079002000690073002000250073000000000020002000CF00D437
:20B00A0000CA00BE00C400DA00C800DD00CE00AA002000250030002E0033006600000000A7
:20B01A000020002000CA00FD00D600B500B100E400BB00AF00C200CA00CE00AA002000253C
:20B02A000030002E0033006600000000004E006F000000000041005200420000004E0041EE
:20B03A000043004B00000000004100520044005900000000005200580000000000540078C2
:20B04A00000000000053004300440000004100410053000000300031003200330034003508
:20B05A00003600370038003900610062006300640065006600300031003200330034003574
:20B06A0000360037003800390041004200430044004500460000000000250000000000002E
:20B07A000000000000000000000040240000FFC0FFFF41DF0000000000003FF0FFFFFFFF4A
:10B08A00FFFF7FEFFFFFFFFFFFFFFFEF000A000058
:20B09200FFFF8EC000000000FFFE8EC2000000000000FFFE8EC40000D70A3C23FFFD8EC626
:20B0A200000000000044004CFFFC8EC900000037003600350034FFFF8ECD00000000FFFA84
:20B0B2008ED20000AFE2003EAFE8003EAFEE003EFFF88ED8000000003F80CCCD3DCCD70A00
:20B0C2003C23126F3A83FFF68EE000000380000000800000010000000200000003800000E5
:20B0D200FFE68F000000000000000000000000000000B852BFFE00100010001000100003E0
:20B0E200006403E800000000000500000000000500000000000500000000FFFC8E42000025
:20B0F2008E8000008E980000FFF08E460000B030003EB034003EB038003EB03E003EB044C1
:20B10200003EB048003EB04C003EB050003EFFF08E560000003F0006005B004F0066006DAC
:20B11200007D0007007F006F0077007C0039005E00790071FFE88E6600000000000000005C
:20B1220000000000000000000000000000000000000000000000000000000000000000000D
:20B1320000000000000000000000FFFF8D8000000000FFF58D8200008DC0000000000000A2
:20B142008DC00000000100008DC000000002FFE88DC000000000000000000000000000001C
:20B15200000000000000000290D3003E9179003E909D003E8FDA003E910A003E9010003E29
:20B16200905F003EFFFF8C0000000003FFDD8C40000000000000000000000000000000006B
:20B17200000000000000001200000001000000000000000000000000000000000000002288
:20B18200000000020000000000000000000000000000000000000024FFFE8E0800000000F4
:20B192000000FFFD8E1D0000000000000000FFFE8E280000AB1F003EFFFE8E2A0000AB1FBC
:20B1A200003EFFFE8E2C000000000000FFFE8E2E000000000000FFFC8E3000000000000026
:20B1B20000000000FFFF8E3500000000FFFF8E3600000000FFFF8E3700000000FFFF8D7834
:08B1C200000000010000000084
:02000004003FBB
:205000007622761F002A1A000001CC06F0FF1AA902009606CC06FFF050029606CC07FFE09B
:1E501000500396071A0401FF1A0501FF761AF6077700FF690006190156C3FFFF0006AC
:047FF600007EAB322C
:00000001FF
